:1000000012C02CC02BC02AC029C028C027C026C0BF
:1000100025C024C023C022C021C020C01FC01EC0D4
:100020001DC01CC01BC011241FBECFE5D4E0DEBF25
:10003000CDBF10E0A0E6B0E0E0EDF2E002C0059038
:100040000D92AA37B107D9F720E0AAE7B0E001C0C6
:100050001D92AF37B207E1F7F0D038C1D1CF80EFB2
:1000600088BB80E090E061E070E09B01082E01C059
:10007000220F0A94EAF7209528BB24E030E046B32B
:1000800050E0022E02C0559547950A94E2F740FDD4
:1000900020C061E070E0022E02C0660F771F0A9454
:1000A000E2F746B350E046235723452B39F4E3EDFE
:1000B000F0E33197F1F700C00000F3CF880F991FEC
:1000C000880F991F280F391FF901EA59FF4F8081C6
:1000D00008952F5F3F4F2830310589F6019684300F
:1000E000910519F68FE308956AE070E0C8D077278C
:1000F000FB01E05AFF4F208125BBDC01BB27A05A42
:10010000BF4F8C9182BB92B380818074880F892B02
:1001100082BB089540917C0050917D009AE0949FAD
:100120009001959F300D1124A901480F511DCA015E
:1001300064E670E0A4D090937D0080937C00D4CFDF
:100140008D32B9F130F48A3209F453C08B3231F177
:1001500008958D33F1F0833471F08F3209F064C06B
:1001600080917A0090917B0060917C0070917D007D
:1001700086D0CB014DC010927B0010927A00109275
:100180007D0010927C008DE380937E0080E090E003
:100190004AC080917C0090917D003AC020917A0005
:1001A00030917B0080917C0090917D00820F931FA5
:1001B0002FC080917A0090917B0020917C0030913B
:1001C0007D00821B930B90937B0080937A001092AA
:1001D0007D0010927C0097FF07C091958195910951
:1001E00090937B0080937A0080917A0090917B00BD
:1001F00013C040917A0050917B0020917C00309197
:100200007D00429FC001439F900D529F900D11248D
:1002100010927D0010927C0064E670E030D09093E4
:100220007B0080937A0060CF089583E489DF8FE0BC
:1002300087BB8FEF84BB81BB0895F7DF10DFC82F2A
:100240008F33E1F380ED8C0F8A3010F463DFF6CF4B
:10025000C33411F483E411C080917E008D3321F00A
:100260006FDFC0937E00EACFC0937E0080917C0058
:1002700090917D00892B11F38DE362DFDFCF97FB37
:10028000072E16F4009406D077FD08D00BD007FC9B
:1002900005D03EF4909581959F4F08957095619596
:1002A0007F4F0895AA1BBB1B51E107C0AA1FBB1FAC
:1002B000A617B70710F0A61BB70B881F991F5A95F2
:1002C000A9F780959095BC01CD010895F894FFCFD2
:1002D0003F065B4F666D7D077F6F3132332B3435C0
:0A02E000362D3738392A43303D2F00
:00000001FF
