S018000053696D706C6543616C63756C61746F722E7372656398
S113000012C02CC02BC02AC029C028C027C026C0BB
S113001025C024C023C022C021C020C01FC01EC0D0
S11300201DC01CC01BC011241FBECFE5D4E0DEBF21
S1130030CDBF10E0A0E6B0E0EEE5F3E002C005902D
S11300400D92AA37B107D9F720E0AAE7B0E001C0C2
S11300501D92AF37B207E1F736D17FC1D1CF80EF20
S113006088BB40E050E061E070E0CB01042E02C0A8
S1130070880F991F0A94E2F7809588BBB49B0DC042
S113008025E030E086B390E0022E02C09595879576
S11300900A94E2F780FD2CC002C024E030E086B36D
S11300A090E0022E02C0959587950A94E2F780FDB0
S11300B014C061E070E0022E02C0660F771F0A943C
S11300C0E2F783ED90E30197F1F700C0000086B3F7
S11300D090E086239723892BA1F3440F551F440FE7
S11300E0551F240F351FF901EA59FF4F80810895E8
S11300F02F5F3F4F2830310529F64F5F5F4F443063
S1130100510509F0B2CF8FE308956AE070E0FED0A4
S11301107727FB01E05AFF4F208125BBDC01BB2779
S1130120A05ABF4F8C9182BB92B380818074880F98
S1130130892B82BB089520917C0030917D00A90118
S1130140440F551F220F331F220F331F220F331F5B
S1130150240F351FA901480F511DCA0164E670E040
S1130160D5D090937D0080937C00CFDF08958D32AD
S113017009F446C030F48A3209F46AC08B3249F17A
S113018008958D33A9F0833421F08F3209F092C0A1
S11301907BC010927B0010927A0010927D00109226
S11301A07C008DE380937E0080E090E0AEDF0895D4
S11301B080917C0090917D0010927D0010927C00D3
S11301C064E670E0A3D090937B0080937A009DDF77
S11301D0089520917A0030917B0080917C00909169
S11301E07D00820F931F10927D0010927C0064E6C4
S11301F070E08CD090937B0080937A0086DF089522
S113020080917A0090917B0020917C0030917D0058
S1130210821B930B90937B0080937A0010927D0055
S113022010927C0099233CF49195819591099093C7
S11302307B0080937A0080917A0090917B0064E641
S113024070E064D090937B0080937A005EDF089521
S113025040917A0050917B0020917C0030917D0088
S1130260429FC001439F900D529F900D1124109204
S11302707D0010927C0064E670E048D090937B008F
S113028080937A0042DF089580917A0090917B00F8
S113029060917C0070917D0039D0CB0110927D007B
S11302A010927C0064E670E031D090937B008093E0
S11302B07A002BDF089583E45ADF8FE087BB8FEF4A
S11302C084BB81BB0895F7DFCADEC82F8F33E1F307
S11302D080ED8C0F8A3010F42EDFF6CFC33419F47E
S11302E083E445DFF1CF80917E008D3321F03FDF41
S11302F0C0937E00E9CFC0937E0080917C009091F2
S11303007D00892B09F38DE332DFDECF97FB072EC7
S113031016F4009406D077FD08D00BD007FC05D066
S11303203EF4909581959F4F0895709561957F4F08
S11303300895AA1BBB1B51E107C0AA1FBB1FA61728
S1130340B70710F0A61BB70B881F991F5A95A9F77A
S111035080959095BC01CD010895F894FFCFDF
S113035E3F065B4F666D7D077F6F3738392F343517
S10D036E362A3132332D43303D2B83
S9030000FC
